:020000040000FA
:1000000002018002200353D77F222202200602121F
:08001000CF80FE022009000070
:03001B0002200CB4
:0300230002200FA9
:03002B000220129E
:0300330002201593
:03003B0002201888
:0300430002201B7D
:03004B0002201E72
:0300530002202167
:03005B000220245C
:0300630002202751
:03006B0002202A46
:0300730002202D3B
:03007B0002203030
:0300830002203325
:03008B000220361A
:030093000220390F
:03009B0002203C04
:1000A30002203F7FFF90008EE07002A3E070479034
:1000B300008CE07002A3E0703D900090E07004A318
:1000C300E06401703190008AE0FE30E729541F702C
:1000D30025900088E0B404087BFF7A007916800D30
:1000E300900088E0B4060F7B017A0079867D017C5D
:0700F300001217DCE4FF22FC
:1000FB000220602001020F25E493A3F8E493A340B0
:10010B0003F68001F208DFF48029E493A3F8540787
:10011B00240CC8C333C4540F4420C8834004F45682
:10012B00800146F6DFE4800B0102040810204080BA
:10013B00901991E47E019360BCA3FF543F30E50915
:10014B00541FFEE493A360010ECF54C025E060A8BA
:10015B0040B8E493A3FAE493A3F8E493A3C8C5824D
:10016B00C8CAC583CAF0A3C8C582C8CAC583CADFBB
:10017B00E9DEE780BEE4786079109007F0E0F608DE
:10018B00A3D9FA78607910901C10E49386F0B5F03F
:10019B0064A308D9F5E490200093B40258E4907D51
:1001AB00FE93B45550E4907DFF93B4AA480220000F
:1001BB0090008EE0FEA3E0FF7DFFC3EE9400503174
:1001CB00A3E07004A3E06401702790008CE0700240
:1001DB00A3E0701D90008AE0B48116900088E0B413
:1001EB00060F7BFF7A0079167D017C001217DCE489
:0401FB00FDAF05222D
:1002000075A800787FE4F6D8FD75812012013B5374
:10021000EFEF0220009000A9EEF0A3EFF09000B104
:10022000741EF0A3E4F0A374FDF09000A9E0FEA317
:10023000E02406F582E43EF583E0FEA3E0FFD394DC
:1002400040EE9400400A7C007D407E007F408000AC
:100250009000AFEEF0A3EFF09000A9E0FEA3E0F570
:10026000828E83E0FFC4135403705BEFC413131337
:10027000540130E0519000A9E0FEA3E0F5828E83A6
:10028000E0541F7041A3E0640660030208CF9000B1
:10029000A9A3E0F5828E83A3A3E0FEA3E07003EEA2
:1002A000640F60030208CF7BFF7A1979BE9000AF1C
:1002B000E0FFA3E09000B8CFF0A3EFF0C200E4FFAE
:1002C000120E6B0208CA9000A9E0FEA3E0F5828E30
:1002D00083E0FFC4135403640260030208CFEFC439
:1002E000131313540130E0030205679000AFE07070
:1002F00002A3E0602612194E50FB9000AFA3E0FD70
:100300007B017A007906E4FF1213CAE4FF12195A3E
:10031000759611759740E59620E7FB9000A9E0FEE1
:10032000A3E0F5828E83A3E01460701470030203CF
:10033000B414700302040124F8700302045C147006
:100340000302049524FE70030204E81470030205FE
:1003500042240F60030208CAE49000ABF0A3F090BF
:1003600000ABE0FEA3E0FF2406F58274003EF583B7
:10037000E0FD74462FF58274003EF583EDF09000A9
:10038000ACE004F070069000ABE004F09000ABE04D
:100390007004A3E0644070C70208CA900007E0FF41
:1003A000EFFE900006E0FDEDFF900000EEF0A3EF01
:1003B000F00208CA900000E0FEA3E0FFC3EE941C28
:1003C00050030208CA9000AFE0FCA3E0FDEF2DFF50
:1003D000EE3CCF24FFCF34FFFED3EF94FFEE947DAD
:1003E00040030208CA900000E0FEA3E0FF7B017A10
:1003F0000079069000B9ECF0A3EDF01215D60208D2
:10040000CA900000E0FEA3E0FFC3EE941C403690CB
:1004100000AFE0FCA3E0FDEF2DFFEE3CCF24FFCFCB
:1004200034FFFED3EF94FFEE947D5019900000E06E
:10043000FEA3E0FF7B017A0079069000B9ECF0A3FF
:10044000EDF01215D69000AFE0FEA3E0FF900001A2
:10045000E02FF0900000E03EF00208CA900007E0B4
:10046000FFC36480949C50030208CAD3EF64809455
:10047000FD40030208CAEF3395E0EFFE900006E06E
:10048000FD3395E0FCEE4CFEEDFF900009E0FD121F
:1004900017540208CA900007E0FF3395E0EFFE9082
:1004A0000006E0FD3395E0FCEE4CFEEDFFC006C01B
:1004B00007900009E0FF3395E0EFFE900008E0FDB3
:1004C0003395E0FCEE4CFC90000BE0FF3395E0EF41
:1004D000FE90000AE0FB3395E0FAEE4AFAEBD00713
:1004E000D0061215700208CA900007E0FFC36480AE
:1004F000949C50030208CAD3EF648094FD40030229
:1005000008CAEF3395E0EFFE900006E0FD3395E07A
:10051000FCEE4CFEEDFF121783900007E0642060B4
:10052000030208CA747CF0E0FF3395E0EFFE900010
:1005300006E0FD3395E0FCEE4CFEEDFF1217830262
:1005400008CA9000A9E0FEA3E02404F582E43EF589
:1005500083E0FEA3E0F47003EE640F60030208CAB8
:100560009000BFF00208CA9000A9E0FEA3E0FFF5EA
:10057000828E83E0FDC4131313540120E0030208AC
:10058000CAA3E014605C1470030207D6147003025F
:1005900007F914700302087A240460030208CFE408
:1005A0009000ABF0A3F09000ABE0FEA3E0FF2406C8
:1005B000F58274003EF583E0FD74462FF5827400E9
:1005C0003EF583EDF09000ACE004F070069000ABD7
:1005D000E004F09000ABE07004A3E0644070C70258
:1005E00008AE9000ABE4F0A37440F07B017A007990
:1005F000469000B1E0FCA3E0FD9000B9E4F0A374E4
:1006000040F012163BE49000ABF0A3F09000ABE09A
:10061000FEA3E0FFC3943CEE9400401D900082E0F6
:10062000900002F0900083E0900003F0900084E0DE
:10063000900004F09000858070744A2FF582740059
:100640003EF583E0F470769000ABE0FEA3E0244C2E
:10065000F58274003EF583E0F47062900046E0F4A9
:10066000604E900048E0F460479000ABA3E0FF24A8
:1006700046F58274003EF583E0900002F074472F47
:10068000F58274003EF583E0900003F09000ABA388
:10069000E02448F58274003EF583E0900004F07495
:1006A000492FF58274003EF583E0900005F0801E2E
:1006B000E4900002F0A3F0A3F0A3F080119000AC4E
:1006C000E02404F09000ABE03400F002060C90004F
:1006D00000E0FEA3E0900046F0EEA3F0E4A3F0A358
:1006E0007420F0A374FFF0A3747DF0E4A3F0A3746E
:1006F0001CF0E4A3F0A3F0900002E0900050F09012
:100700000003E0900051F0900004E0900052F0905F
:100710000005E0900053F0A37420F0A37401F09062
:100720000000E0641C7002A3E070759000ABF0A3C1
:10073000F09000ABE0FEA3E0FF24F0F58274073EEA
:10074000F583E0FD74562FF58274003EF583EDF0DD
:100750009000ACE004F070069000ABE004F0900074
:10076000ABE07004A3E0641070C7E49000ABF0A3AA
:10077000F09000ABE0FEA3E0FFC39420EE940040B5
:10078000030208AE74662FF58274003EF583E4F030
:100790009000ACE004F070D99000ABE004F080D1A0
:1007A000E49000ABF0A3F09000ABE0FEA3E0FFC349
:1007B0009430EE940040030208AE74562FF5827414
:1007C000003EF583E4F09000ACE004F070D99000B6
:1007D000ABE004F080D17B017A007946900000E024
:1007E000FCA3E0FD9000AFE0FFA3E09000B9CFF0E4
:1007F000A3EFF012163B0208AE900000E0FEA3E06B
:10080000FFC3EE941C403F9000AFE0FCA3E0FDEF7F
:100810002DFFEE3CCF24FFCF34FFFED3EF94FFEE4D
:10082000947D50227B017A007946900000E0FCA381
:10083000E0FD9000AFE0FFA3E09000B9CFF0A3EFA0
:10084000F012163B8054E49000ABF0A3F09000ABA4
:10085000E0FEA3E0FFC39440EE9400503D74462FA9
:10086000F58274003EF58374FFF09000ACE004F074
:1008700070DB9000ABE004F080D37B017A00794616
:10088000900000E0FCA3E0FD9000AFE0FFA3E0904B
:1008900000B9CFF0A3EFF012163B9000AFE0FEA33B
:1008A000E0FF900001E02FF0900000E03EF07B01BF
:1008B0007A0079469000AFE0FFA3E09000B8CFF057
:1008C000A3EFF0C200E4FF120E6BE49000B3F090CF
:1008D00000B3E0FF22E4FDFC9000AE74FFF0900056
:1008E0008AE064806003020A2690008CE0FAA3E0AC
:1008F0009000AAF0EAFFE460030209FDEF24FE6025
:100900003A14606F240260030209FD9000AAE060BF
:10091000030209FD90009AE0F9A3E0FAA3E0900039
:10092000ABC9F0A3EAF0A3E9F090009AE0FBA3A31F
:10093000E0F9120B827C00FD0209FD9000AAE06044
:10094000030209FD90009DE0F9A3E0FAA3E0900006
:10095000ABC9F0A3EAF0A3E9F090009DE0FBA3A3EC
:10096000E0F9900002120C06FAE5F0FFEAFCEFFD58
:100970000209FD9000A0E0FBA3E0FAA3E0F99000DB
:10098000AAE0FF75F003A4F58285F083120C5E9057
:1009900000ABEBF0A3EAF0A3E9F0EF700CFC7D04F0
:1009A000900092E05480F0805490008EE0FEA3E02E
:1009B000FF4E600AEF64097003EE6404703F90001C
:1009C00087E0FF9000AAE0C39F5032A3E0FBA3E0C2
:1009D000FAA3E0F9900001120B9B7C00FD120B8240
:1009E000547FFF900092E054804FFFF09000ACE401
:1009F00075F001120BDAEF4480900092F0ED4C603C
:100A000025900090E0FEA3E0FFC39DEE9C5004AC57
:100A100006AD079000ABE0FBA3E0FAA3E0F91217E4
:100A2000DCE49000AEF09000AEE0FF22900099E090
:100A3000139200900096E0FEA3E0FFC39440EE9472
:100A40000040047F4080009000A9EFF0900096E005
:100A5000FEA3E0FFD39440EE940050047F4080005A
:100A60009000ACEFF09000A9E0A3F0900092E0FFBE
:100A7000547F64017077EF30E72AA3E0FBA3E0FA2C
:100A8000A3E0F9C2017D02E4FF1211B7900094E4E3
:100A900075F002120BDA9000A9E024FEF0900092AB
:100AA000E0547FF0E49000ABF09000A9E0C313FFA6
:100AB0009000ABE0C39F505A900093E0FBA3E0FA94
:100AC000A3E0F9C2017D01E4FF1211B7900094E4A4
:100AD00075F001120BDA7BFF7A007916C2017D01F5
:100AE000E4FF1211B79000ABE004F080BC9000A9C5
:100AF000E0FD900093E0FBA3E0FAA3E0F9C201E47B
:100B0000FF1211B79000A9E0FF900094E48FF0125B
:100B10000BDA900099E054FBF09000AAE0FFC3903C
:100B20000097E09FFF900096E09400FEF0A3EFF0A6
:100B30004E70249000ACE06440601C75961175976F
:100B40000AE59620E7FB9000987401F0E49000928B
:100B5000F0900099F0800B759611759702E596203C
:100B6000E7FB30001C9000AAE0FB7A00900096E0C2
:100B7000FFA3E09000B1CFF0A3EFF0E4FDFF121867
:100B8000F922BB010689828A83E0225002E722BB58
:100B9000FE02E32289828A83E49322BB010CE58270
:100BA00029F582E5833AF583E0225006E92582F8AB
:100BB000E622BBFE06E92582F8E222E58229F582DB
:100BC000E5833AF583E49322BB010689828A83F0A8
:100BD000225002F722BBFE01F322C5F0F8A3E02861
:100BE000F0C5F0F8E582158270021583E038F02236
:100BF000A3F8E0C5F025F0F0E582158270021583B8
:100C0000E0C838F0E822BB0110E58229F582E583CF
:100C10003AF583E0F5F0A3E0225009E92582F88651
:100C2000F008E622BBFE0AE92582F8E2F5F008E2C8
:100C300022E5832AF583E993F5F0A3E99322BB012A
:100C40000789828A83020C975005E9F8020C8EBB53
:100C5000FE05E9F8020CA089828A83020CA9BB0177
:100C60000DE58229F582E5833AF583020C9750075A
:100C7000E92582F8020C8EBBFE07E92582F8020CFA
:100C8000A0E58229F582E5833AF583020CA9E6FB0B
:100C900008E6FA08E6F922E0FBA3E0FAA3E0F9226D
:100CA000E2FB08E2FA08E2F922E493FB740193FA0A
:100CB000740293F9229000AA74FFF090008CE0FC7B
:100CC000A3E0FDEC6003020DA390008AE0541F60D6
:100CD00003020DA3900090E07002A3E06003020DF8
:100CE000A390008EE07002A3E06003020DA39000C9
:100CF00088E064047057ED4C602090009DE0FBA3F9
:100D0000E0FAA3E0F9900005120B9BFF90008CE045
:100D10007003A3E06F6003020DA390008CA3E0902A
:100D20000086F090009DE0FBA3E0FAA3E0F99000BC
:100D300005120B9BFF90008CE0B4000FA3E0B507F9
:100D40000AD20012000A7F061217238051900088F1
:100D5000E06406704E90008CE0FEA3E0FF4E601C45
:100D600090009DE0FBA3E0FAA3E0F9900005120BD0
:100D70009BFD7C00EFB5052BECB5062790008CA3FE
:100D8000E0900086F090008CE07002A3E0700A7F93
:100D90000412172312185B8005C20012000AE490A7
:100DA00000AAF09000AAE0FF229000A6EBF0A3EAD0
:100DB000F0A3E9F053E6FDE4FF74862FF582E434F6
:100DC00000F583E4F00FEFB41DEF9000A6E0FBA365
:100DD000E0FAA3E0F9120C3E90009AEBF0A3EAF0DF
:100DE000A3E9F09000A6E0FBA3E0FAA3E0F99000ED
:100DF00003120C5E90009DEBF0A3EAF0A3E9F090E3
:100E000000A6E0FBA3E0FAA3E0F9900006120C5E56
:100E10009000A0EBF0A3EAF0A3E9F09000A6E0FBBD
:100E2000A3E0FAA3E0F9900009120B9B900087F071
:100E300053A98F43D720759601759708E59620E74B
:100E4000FB75960B75970FE59620E7FBE5C9A2E6C3
:100E500090008850057403F080037401F0759601CA
:100E6000759701E59620E7FB7F00229000B5EBF037
:100E7000A3EAF0A3E9F09000B4EFF0601280007BE9
:100E8000FF7A16799B7D7E7C021200117FFC2290F6
:100E900000B4E0FE600B900088E0640660037FF71A
:100EA00022EE75F007A42493F9740035F0FEAF012B
:100EB000F583EF2405F582E43583F583E0FD6401D5
:100EC0006009ED7FFEB405027FFB229000B5E0F9DA
:100ED000A3E0FAA3E08F828E83C9F0A3EAF0A3E92E
:100EE000F09000B8E0FDA3E08F828E83A3A3A3CD92
:100EF000F0A3EDF0EF2405F582E43EF5837402F0F3
:100F0000A200E4335401FDEF2406F582E43EF583AC
:100F1000E054FE4DF09000B4E07007900099E0447A
:100F200004F07F0022E4F5BFF5A8F5E6F5E753B23B
:100F3000FC75A902F5D9F5D8F5DAF5E175E240F5C9
:100F4000E312000675F1FF75F2FF75F3FF75F4FF0C
:100F5000E4F5A4F5A5F5A6F5A77580FF7590FF75D6
:100F6000A0FF75B0FF75D4FF75D5FF75D6FF75DF8F
:100F7000FF9000A4F0A3F09000A5E004F0700690AC
:100F800000A4E004F09000A4E0B4FFEBA3E0B4FE02
:100F9000E67BFF7A1A7957120DA91219419000BF0A
:100FA0007401F09000BFE0600512000E80F5E4903F
:100FB00000A4F0A3F012000E9000A5E004F070066B
:100FC0009000A4E004F0C39000A4E0940140E61275
:100FD000000675EF107F0022E4FF12195A1219273C
:100FE000400512191A501F759611E4F597E59620E1
:100FF000E7FB759611759780E59620E7FB900098C2
:101000007401F0E4A3F012194E5061900099E0FFD2
:1010100030E3028054900098E064017048900092A0
:10102000F012111D7E007F8A120215BFFD1590007F
:101030008AE0FFC41354037005121249802E12185F
:101040008E802990008AE020E722900098E06403D7
:10105000601A900090E07002A3E06010900099E0A8
:101060004408F08007900099E04402F0900098E076
:10107000B402081219344003120A2C229000AA74F8
:10108000FFF0900090E07004A3E06402600302119E
:101090001790008CE07002A3E0707C90008AE0FF63
:1010A00030E774900088E0FEC39404406AE4900046
:1010B000BDF0A3F0EF541F14601D146025240270CE
:1010C0004490008EE07002A3E0703A9000BDE044CE
:1010D00001F0A3E0F0801CC390008EE09400502546
:1010E000801190008EE0FCA3E0FD547F4C700BEE6D
:1010F000B40407E49000AAF0800B900088E0B406E6
:10110000047E00AF059000AAE0700C7B017A0079A4
:10111000BD7D02FC1217DC9000AAE0FF227E007F5A
:101120008A9000A9EEF0A3EFF0AA06F97B017D08F2
:10113000E4FF1213CA759611759740E59620E7FBF8
:101140009000A9E0FEA3E0F5828E83A3A3E0FCA3B8
:10115000E0FAECFFEAFE9000A9E0FCA3E0FDF582D6
:101160008C83A3A3EEF0A3EFF0ED2404F582E43C1E
:10117000F583E0FCA3E0FAECFFEAFE9000A9E0FCB6
:10118000A3E0FD2404F582E43CF583EEF0A3EFF048
:10119000ED2406F582E43CF583E0FCA3E0FAECFFE5
:1011A000EAFE9000A9E0FCA3E02406F582E43CF509
:1011B00083EEF0A3EFF0229000ADEFF0A3EDF0A3EB
:1011C000EBF0A3EAF0A3E9F0E59620E7FB9000AD91
:1011D000E04420F5969000AFE014601924036028E5
:1011E0001460341470429000AEE0FFA3A3A3E0FDAE
:1011F0001218D180339000AEE0FFA3A3E0FAA3E081
:10120000AC02FD1218BB80209000AEE0FFA3A3A3A8
:10121000E0FD1218E580119000AEE0FFA3A3E0FA14
:10122000A3E0AC02FD12187730011D9000ADE0FF85
:10123000D39400401312195A759691E59620E7FB56
:10124000439701E59620E7FB22E49000A9F0900087
:101250008BE0B40C00505D90125EF82828730212E7
:10126000820212870212B402128C0212B40212918C
:101270000212960212B402129B0212A00212A502DE
:1012800012AA12107C80261214A280211215098045
:101290001C12134F80171208D580121200A6800D61
:1012A000120CB580081201BB80031216EE9000A943
:1012B000EFF080069000A974FFF0E4FF12195A9035
:1012C00000A9E0B4FF0312188E9000A9E0FF2212DB
:1012D00019659000A6EFF01219709000A7EFF012B8
:1012E000197B9000A6E07007A3E07003EF605F1227
:1012F00019869000A8EFF09000A6E0FC30E3229061
:101300000099E0FE30E108900098E06403600BEE85
:1013100030E20E900098E0B402079000A7E044018C
:10132000F0EC30E2031217B29000A6E030E10312B5
:10133000199B9000A6E030E00312190B9000A7E083
:1013400030E003120FD89000A8E0FF12195A229043
:1013500000AA74FFF090008CE0FEA3E0FFC394802D
:10136000EE9400505F900090E07002A3E070559002
:10137000008AE0541F704D90008EE07002A3E07070
:1013800043900088E0B4030BEF4E601D7F041217FA
:10139000238016900088E0B4041490008CE0700262
:1013A000A3E070057F03121723E49000AAF09000D9
:1013B000AAE07010F59690008CA3E04480F597E5C4
:1013C0009620E7FB9000AAE0FF229000B4EFF09097
:1013D00000B6EBF0A3EAF0A3E9F09000B5EDF0D38E
:1013E00094004054E59620E7FB9000B4E0FE44E012
:1013F000F5969000B6E01460172403602924FE706F
:10140000379000B5E0FFA3A3A3E0FDAB0602183EB2
:101410009000B5E0FFA3A3E0FAA3E0AC02FD9000CA
:10142000B4E0FB0217FE9000B5E0FFA3A3A3E0FD2C
:101430009000B4E0FB12181F229000AEEFF0E4A37E
:10144000F0EF60099000AEE0C3940140157BFF7A95
:1014500016799B7D4A7C001200119000AF74FCF05D
:10146000803A9000AEE075F007A42493F97400353B
:10147000F0FEAF01F583EF2405F582E43583F583B3
:10148000E064016017EF2405F582E43EF583740102
:10149000F0EF2406F582E43EF583E4F09000AFE03F
:1014A000FF229000AA74FFF0900090E07002A3E089
:1014B000705190008AE0541F24FE704790008CE029
:1014C0007002A3E0703D90008EE0FEA3E0547FFF29
:1014D0004E7010900088E0C394044007E49000AA86
:1014E000F08020C3EF9401EE94005017900088E044
:1014F000B40610E49000AAF090008EA3E0547FFFA1
:1015000012195A9000AAE0FF229000AA74FFF090EE
:101510000090E07002A3E0705190008AE0541F2414
:10152000FE704790008EE0FEA3E0547FFF4E7010E7
:10153000900088E0C394044007E49000AAF0802A59
:10154000C3EF9401EE9400502190008CE07002A350
:10155000E07017900088E0B40610E49000AAF090C4
:10156000008EA3E0547FFF12195A9000AAE0FF22D8
:101570009000B4EEF0A3EFF0A3ECF0A3EDF0A3EA3B
:10158000F0A3EBF0E4A3F0A3F09000B8E0FEA3E03A
:10159000FFA3E0FCA3E0FDC39FEC9E50389000B792
:1015A000E02DFF9000B6E03CFE1218A5AD079000BC
:1015B000BAE0FEA3E0FF9000B5E02FFF9000B4E09A
:1015C0003EFE1217549000BBE004F070BC9000BACD
:1015D000E004F080B4229000B6EBF0A3EAF0A3E9B7
:1015E000F09000B4EEF0A3EFF09000BBEEF0A3EFAC
:1015F000F09000B9E0FEA3E0FF9000B5E02FFD9071
:1016000000B4E03EFC9000BBE0FEA3E0FFC39DEE13
:101610009C50279000B6E0FBA3E475F001120BF09C
:10162000A9F0FA120B82FD1217549000BCE004F0EE
:1016300070BF9000BBE004F080B7229000B4EBF0E4
:10164000A3EAF0A3E9F0A3ECF0A3EDF0E49000BB73
:10165000F0A3F09000B9E0FEA3E0FFA3E0FCA3E05C
:10166000FDC39FEC9E50339000B8E02DFF9000B773
:10167000E03CFE1218A59000B4E0FBA3E475F00175
:10168000120BF0A9F0FAEF120BC89000BCE004F0C6
:1016900070C19000BBE004F080B922433A5C5573FE
:1016A0006572735C746573745C4465736B746F709E
:1016B0005C4D65726C696E5F41505C5553422D42C2
:1016C0004C2D312832303135303632365F563229A2
:1016D0005C6C69625C65666D385F7573625C7372C1
:1016E000635C65666D385F757362642E63007FFFAF
:1016F00090008EA3E0FE90008CA3E0FDEEC394006A
:101700005020900088E0B40619900090E07002A389
:10171000E0700FED700C90008AE0541FFEBE0102D5
:10172000E4FF229000ABEFF0900088E09000ACF076
:10173000C39405400B9000ABE09405500312185B76
:101740009000ABE0FFB40506A3E0900089F09000A4
:1017500088EFF022A2AF9200C2AF75FFA075EF0232
:101760008E088F0975B7A575B7F1438F0175FFA076
:1017700075EF02850982850883EDF0538FFEA20084
:1017800092AF22A2AF9200C2AF75FF8075EF028EBA
:10179000088F0975B7A575B7F1438F0375FF80757D
:1017A000EF02850982850883E4F0538FFCA2009242
:1017B000AF229000987401F0F596F597E59620E732
:1017C000FB75960B75970FE59620E7FBE5C9A2E63A
:1017D00050047F0380027F0112172322900098E0BB
:1017E000B4011A900093EBF0A3EAF0A3E9F0AF057F
:1017F000A3ECF0A3EFF0A37402F0E4A3F0228D8237
:101800008C831FEF600BE59620E7FBE597F0A38044
:10181000F1E59620E7FBEB4420F596E597F022A84A
:10182000051FEF600BE59620E7FBE597F20880F1D6
:10183000E59620E7FBEB4420F596E597F222A80514
:101840001FEF600AE59620E7FBA6970880F2E59671
:1018500020E7FBEB4420F596A697229000AD74019B
:10186000F09000ADE0FFC39401500B1214399000CA
:10187000ADE004F080EB228D828C83AE071FEE601A
:101880000CE59620E7FBE493F597A380EE22E4FFB6
:1018900012195A9000987405F0759611759720E505
:1018A0009620E7FB22A2AF9200C2AF8E088F098F6D
:1018B000828E83E493FFA20092AF228D828C83AE4E
:1018C000071FEE600BE59620E7FBE0F597A380EF9E
:1018D00022A805AE071FEE600BE59620E7FBE6F5B4
:1018E000970880EF22A805AE071FEE600BE5962053
:1018F000E7FBE2F5970880EF229000ADEFF0A3ED53
:10190000F0A3EAF0A3EBF0E4FEFF22900088E0C32E
:10191000940240057F0512172322759691E59620C3
:10192000E7FBE597A2E422759691E59620E7FBE5B3
:1019300097A2E222759691E59620E7FBE597A2E152
:10194000229000987401F043D78043D740227596C7
:1019500091E59620E7FBE597132275960E8F97E5A4
:101960009620E7FB22759686E59620E7FBAF972247
:10197000759682E59620E7FBAF9722759684E596EB
:1019800020E7FBAF972275968EE59620E7FBAF9791
:101990002242000000004100BF0000900089E0FFEB
:1019A0000217231201010211000040350871FF20C7
:1019B0000101020301090209000001048032050F40
:1019C0001900011410040005A04F5A082149BBB2A8
:1019D000E30E74FF0894AD0403090401220341637C
:1019E00074696F6E205374617220546563680001DE
:1019F00018035553422055706772616465000104F5
:101A0000033000011803555342205570677261641A
:101A10006500013C03687474703A2F2F7777772E36
:101A2000616374696F6E737461722E636F6D2E746F
:101A3000772F000118035553422055706772616477
:101A40006500FF19D7FF19DBFF19EFFF19FEFF1A19
:101A500003FF1A12FF1A33FF19A3FF19B5FF1A4229
:011A6000077E
:00000001FF
