:020000040000FA
:10200000022066E5A1A2E69203E5F8540C24FF92B3
:1020100000D204222202382B80FE220233AB7FFF43
:10202000785BE61846703D18E618467037785DE62E
:1020300064011846702E7856E6FE30E727541F706C
:10204000237854E6B404087BFF7A4979E5800C785C
:1020500054E6B4060F7B007A0079527D017C0012B1
:052060004670E4FF22C0
:1020660053D9BF787FE4F6D8FD75817C023DDD8AC1
:10207600318B32ED6003022967EF6007640260036B
:10208600022954900179E0603014603024F2B407DC
:102096000040030229549020AA75F003A4C58325A5
:1020A600F0C583730228B602295402212E0221604C
:1020B60002231D0226780226930223947FFB7E7D4F
:1020C6001246CB90017AEFF07FFA1246CB90017B55
:1020D600EFF07FFD1246CB90017CEFF07FFC1246BD
:1020E600CB90017DEFF07FF91246CB90017EEFF0A9
:1020F6007FF81246CB90017FEFF0A374FFF0A3F0B8
:10210600A3F0A3F07FF01246CB900184EFF0A37406
:10211600FFF07FF31246CB900186EFF07FF2124676
:10212600CB900187EF0228ACE5F820E00643A40D2A
:1021360043F801E4F535F536741E2536F58274004C
:102146003535F583E4F00536E53670020535643E2F
:10215600453570E41236F7022234E5F820E00643EE
:10216600A40D43F80190017BE024FCFF90017AE086
:102176006F600302223D90017CE06402600302224C
:102186003DF535F53674782536F58274013535F525
:1021960083E0FF743D2536F8A6070536E53670025E
:1021A60005356408453570DD1247E2124615EF54D1
:1021B60003FFBF02F6E4F535F536743D2536F8E63D
:1021C600FF74782536F58274013535F583EFF00511
:1021D60036E536700205356408453570DD1240B9BE
:1021E600124615EF540370F8E54024FC90017AF08E
:1021F600A37404F0A314F0A3E542F0A3E543F0A30F
:10220600E544F01236F7E4F535F536743D2536F833
:10221600E6FF74782536F58274013535F583EFF0DF
:102226000536E536700205356408453570DD9000E3
:10223600007411F002295490017AE070030223170A
:1022460090017CE064206003022317F535F53674AF
:10225600782536F58274013535F583E0FF743D2522
:1022660036F8A6070536E5367002053564084535A5
:1022760070DD90017AE0FFD3941E40087537007533
:10228600381E80057537008F3890017DE0F539A33B
:10229600E0F53AE4F535F536C3E5369538E5359596
:1022A6003750441247E2124615EF5403FFBF02F6B9
:1022B600900179E53EF0A3E53FF0A3E540F0E54166
:1022C6001240ACE53AB4F0070539E4F53A800674F5
:1022D60010253AF53A124615EF540370F80536E51F
:1022E6003670B5053580B1E4F535F536743D2536DD
:1022F600F8E6FF74782536F58274013535F583EFF7
:10230600F00536E536700205356408453570DD8022
:102316007D1240B902287790017AE0FD64907071D1
:10232600A3E0B4010EE5F830E00953F8FE53A4F239
:1023360012477C90017BE0FF700CA3E590F09000C3
:10234600007412F08048E5A054F064407029EF64F0
:1023560008702490017CE0FF70054390088007EF29
:10236600B408035390F712477C90017BE05590A385
:10237600F0E06408F0801790017BE05590FFA3E041
:102386006F629012477C90017BE05590A3F0022883
:1023960077ED6480702590017BE0FF7006A3E580F1
:1023A60002261FE5805FFF90017CE06F6280124786
:1023B6007C90017BE05580A302261F90017AE0FD08
:1023C60064F17022A3E0FF7005A3E5F18015E5F145
:1023D6005FFF90017CE06F62F112477C90017BE029
:1023E60055F1A302261FED64A4702490017BE0FF43
:1023F6007005A3E5A48015E5A45FFF90017CE06F5E
:1024060062A412477C90017BE055A4A302261F908C
:10241600017AE0FD64A07022A3E0FF7005A3E5A0A9
:102426008015E5A05FFF90017CE06F62A012477CFB
:1024360090017BE055A0A302261FED64F370249063
:10244600017BE0FF7005A3E5F38015E5F35FFF90E0
:10245600017CE06F62F312477C90017BE055F3A3A9
:1024660002261F90017AE0FD64A67022A3E0FF70A9
:1024760005A3E5A68015E5A65FFF90017CE06F62E7
:10248600A612477C90017BE055A6A302261FED64A9
:10249600BC702490017BE0FF7005A3E5BC8015E5C8
:1024A600BC5FFF90017CE06F62BC12477C90017BB1
:1024B600E055BCA302261F90017AE0FD64BE70229F
:1024C600A3E0FF7005A3E5BE8015E5BE5FFF9001A2
:1024D6007CE06F62BE12477C90017BE055BEA30292
:1024E600261FED64BD702490017BE0FF7005A3E517
:1024F600BD8015E5BD5FFF90017CE06F62BD1247B0
:102506007C90017BE055BDA302261F90017AE0FD79
:1025160064C47022A3E0FF7005A3E5C48015E5C47A
:102526005FFF90017CE06F62C412477C90017BE004
:1025360055C4A302261FED64C3702490017BE0FFFF
:102546007005A3E5C38015E5C35FFF90017CE06FCE
:1025560062C312477C90017BE055C3A302261F90FD
:10256600017AE0FD64C67022A3E0FF7005A3E5C60C
:102576008015E5C65FFF90017CE06F62C612477C5E
:1025860090017BE055C6A302261FED64C57023901B
:10259600017BE0FF7005A3E5C58015E5C55FFF90EB
:1025A600017CE06F62C512477C90017BE055C5A3B4
:1025B600806790017AE0FD64E87038A3E0FF70035D
:1025C600A3802CE5E85FFF90017CE06F62E812478C
:1025D6007C90017BE055E8A3F012477C90017EE5F4
:1025E600BEF0A3E5BDF053E8DF12477C90017DE520
:1025F600E8807BED64BB702390017BE0FF7005A350
:10260600E5BB8015E5BB5FFF90017CE06F62BB1206
:10261600477C90017BE055BBA3805390017AE0FD97
:1026260064BA7021A3E0FF7005A3E5BA8015E5BA88
:102636005FFF90017CE06F62BA12477C90017BE0FD
:1026460055BAA38029ED64D1600302295490017B19
:10265600E0FF7005A3E5D18015E5D15FFF90017C11
:10266600E06F62D112477C90017BE055D1A3F00266
:1026760028AD75C1D012477C90017BE030E0051291
:102686003E9C800312435E53C1EF0228AD90017A4F
:10269600E0FF7003022879A3E06F6003022879E562
:1026A600F820E00643A40D43F801E4F535F5367449
:1026B600782536F58274013535F583E0FF743D25BE
:1026C60036F8A6070536E536700205356408453541
:1026D60070DD90017AE0FFD3941E400875370075CF
:1026E600381E80057537008F3890017EE0F539A3D6
:1026F600E0F53AE4F535F536C3E5369538E5359532
:102706003750411247E2124615EF5403FFBF02F657
:10271600E4900179F0A37404F0A3F074201240ACA5
:10272600E53AB4F0070539E4F53A80067410253A1F
:10273600F53A124615EF540370F80536E53670B8CB
:10274600053580B490017AE0FFD3941E40087537B2
:102756000075381E80057537008F38E538AE377836
:1027660005C333CE33CED8F9F5388E3785413B8550
:10277600423C85433985443AE4F535F536C3E536BA
:102786009538E5359537400302284F90017B740450
:10279600F0A314F0A3E53BF0A3E53CF0E53630E00A
:1027A60006A37480F08005E490017FF0123A7A1255
:1027B6004615EF540370F81247E2124615EF54031C
:1027C600FFBF02F690017C7402F0A3E539F0A3E5A1
:1027D6003AF0E53630E006A37480F08005E4900117
:1027E6007FF0123D21124615EF540370F890017ADE
:1027F6007480F0A37404F0A314F0A3E539F0A3E504
:102806003AF0E53630E006A37480F08005E49001E6
:102816007FF0123A7A124615EF540370F8E5363017
:10282600E01CE53AB4FF070539E4F53A8002053ABB
:10283600E53CB4FF07053BE4F53C8002053C053664
:10284600E53670020535022783E4F535F536743D25
:102856002536F8E6FF74782536F58274013535F5A8
:1028660083EFF00536E536700205356408453570A8
:10287600DD8034900138E0900179F0A374FEF09089
:10288600013AE090017BF090013BE090017CF090F2
:10289600013CE090017DF090013DE090017EF090DA
:1028A600013EE090017FF09000007412F00229547E
:1028B60090017AE064556003022954A3E064AA609B
:1028C600030229547F817E1E1246CBAD07EDF460CC
:1028D60003ED70027D07E4F537F538EDFFC3E53803
:1028E6009FE53794005023E4F535F5361247D305B6
:1028F60036E53670020535C394FFE535940040ECA5
:102906000538E53870D5053780D1E4F535F536124A
:1029160047D30536E53670020535C39441E535944F
:102926000040EC53D77FE4F535F5361247D305362C
:10293600E53670020535C394FFE535940040EC7B1F
:10294600FF7A0279008B138A148915122A5B7B01A0
:102956007A017978754900754A40D2077F021239A3
:102966005AE4FEFF22BB010689828A83E0225002D6
:10297600E722BBFE02E32289828A83E49322BB011B
:102986000CE58229F582E5833AF583E0225006E9D3
:102996002582F8E622BBFE06E92582F8E222E582D8
:1029A60029F582E5833AF583E49322F8BB010DE528
:1029B6008229F582E5833AF583E8F0225006E92577
:1029C60082C8F622BBFE05E92582C8F222BB0110A9
:1029D600E58229F582E5833AF583E0F5F0A3E02266
:1029E6005009E92582F886F008E622BBFE0AE925A9
:1029F60082F8E2F5F008E222E5832AF583E993F509
:102A0600F0A3E99322BB010789828A83022A6A50CE
:102A160005E9F8022A61BBFE05E9F8022A738982F4
:102A26008A83022A7CBB010DE58229F582E5833A79
:102A3600F583022A6A5007E92582F8022A61BBFE5D
:102A460007E92582F8022A73E58229F582E5833AA9
:102A5600F583022A7C8A838982E473E6FB08E6FA18
:102A660008E6F922E0FBA3E0FAA3E0F922E2FB087C
:102A7600E2FA08E2F922E493FB740193FA740293F2
:102A8600F9228F2C752DFDA807E6FFC413540360A9
:102A960003022B47EFC4131313540120E003022B48
:102AA60047E6541F64016003022B47E804F8E62456
:102AB600FA6003022B9FE52C2402F9E764227038A2
:102AC600E52C2404F8E6FE08E66003022B9FEE6080
:102AD60003022B9F7BFF7A49790EE52C2406F8E644
:102AE600FE08E6FFC374229FE49E500A7C007D2206
:102AF6007E007F2280458043E52C2402F9E764218D
:102B06006003022B9FE52C2404F8E6FE08E660032A
:102B1600022B9FEE6003022B9F7BFF7A497954E5D7
:102B26002C2406F8E6FE08E6FFC374099FE49E50CF
:102B36000A7C007D097E007F0980008E328F3380FB
:102B460039A82CE6FFC41354036401704CEF541FDC
:102B560064017045E804F8E624F760272408703914
:102B6600E52C2402F808E66403702E1241717B01FD
:102B76007A017937753200753340C206E4FF1232A6
:102B86002D80137B017A017978754900754A40D208
:102B960007E4FF12395AE4F52DAF2D22900017E015
:102BA600241EF582E43400AD82F5228D23752401BE
:102BB60075253C9001377403F0900179E090013857
:102BC600F090017AE0900139F090017BE090013AB3
:102BD600F090017CE0FE90013BF064026008EE6438
:102BE600036003022C7090017DE0FE0525E525AC0F
:102BF600247002052414F5828C83EEF090017EE0A9
:102C0600FE0525E525AC247002052414F5828C8387
:102C1600EEF090017FE0FE0525E525AC2470020567
:102C26002414F5828C83EEF0E4FF0523E523AC2221
:102C36007002052214F5828C83E0FE0525E525AC9D
:102C4600247002052414F5828C83EEF0741E2FF591
:102C560082E43400F583E4F074782FF582E43401DD
:102C6600F583E4F00FBF38C28040E4FF0523E52377
:102C7600AC227002052214F5828C83E0FE0525E560
:102C860025AC247002052414F5828C83EEF0741EA4
:102C96002FF582E43400F583E4F074782FF582E4AE
:102CA6003401F583E4F00FBF3BC2750F4022E4FD0B
:102CB600FC7531FF7856E664806003022DC17858B2
:102CC600E6FE08E6F52DEEFFE46003022D9FEF24F5
:102CD600FE602A14604E24026003022D9FE52D60DB
:102CE60003022D9F7874860308E6FA08E6F98B2E10
:102CF6008A2FF53012296B7C00FD022D9FE52D6091
:102D060003022D9F7877860308E6FA08E6F98B2EEC
:102D16008A2FF5309000021229D3FAE5F0FFEAFC7B
:102D2600EFFD8075787A860308E6FA08E6F975F00D
:102D360003E52DA4F58285F083122A2B8B2E8A2F8C
:102D46008930E52D700BFC7D04785EE65480F680B4
:102D560048785AE6FE08E6FF4E600AEF64097003FB
:102D6600EE64047034E52DC3785396502CAB2EAA2E
:102D76002FA9309000011229847C00FD12296B5482
:102D86007FFF785EE654804FFFF674012530F530FC
:102D9600E4352FF52FEF4480F6ED4C601E785CE6A7
:102DA600FE08E6FFD3ED9FEC9E4004AC06AD07ABF4
:102DB6002EAA2FA930124670E4F531AF312278657C
:102DC600E61392067862E6FE08E6FFC39440EE94A8
:102DD6000040047F4080008F2C852C2D785EE6FF16
:102DE600547F64017068EF30E72608860308E6FA28
:102DF60008E6F9C2087D02E4FF123F7578617402A5
:102E060026F618E436F6152C152C785EE6547FF671
:102E1600E4F52EE52CC313FFE52EC39F504D785FD6
:102E2600860308E6FA08E6F9C2087D01E4FF123FC8
:102E3600757861740126F618E436F67BFF7A4979CF
:102E4600E5C2087D01E4FF123F75052E80C5785F57
:102E5600860308E6FA08E6F9C208AD2CE4FF123F3D
:102E6600757861E52C26F618E436F67865E654FBA7
:102E7600F6C37863E6952DFF18E69400FEF608EF94
:102E8600F64E701EE52D6440601875961175970A0A
:102E9600E59620E7FB78647601E4785EF67865F6D9
:102EA600800B759611759702E59620E7FB300614A0
:102EB600E52DFB7A007862E6F53308E6F534E4FDA5
:102EC600FF122075227B107A10E4F9FDFCEDAE04AA
:102ED6007802C333CE33CED8F92400FFEE341EFE7B
:102EE6001246CBBFFF04AB05800B0DBD00010CEDF8
:102EF60064104C70D8E4F9EBC39410503FEBC394C4
:102F0600014039EB14FA75F004A424001246C5EF0B
:102F160064057028EA75F004A424011246C5EF7012
:102F26001BEA75F004A424021246C5BF460EEA75D4
:102F3600F004A424031246C5EF700109E9600302F8
:102F46002FCCEB75F004A42400FFE5F0341EFE7DC3
:102F5600051244BEEB75F004A424011244B6EB75C9
:102F6600F004A42402FFE5F0341EFE7D461244BEA2
:102F7600EB75F004A424031244B6EB7010EB75F065
:102F860004A42440FFE5F0341EFE0D8036EB24FF3A
:102F9600FFE434FFFEEF7802C333CE33CED8F924F4
:102FA60040FFEE341EFE1246CBAA070AEAC394FE81
:102FB60040027AFEEB75F004A42440FFE5F0341ECF
:102FC600FEAD021244BE22C2067F011248581248C4
:102FD600335015759694E59620E7FB5397BFE59613
:102FE60020E70302309A80F612484C400302309ADA
:102FF6001248F18F2C7872E66403600A08E64402F0
:10300600F6752DF9806DC37871E6952C18E6940057
:10301600500E7872760108E64402F6752DF280535A
:10302600786D860308E6FA08E6F9AD2C7F011242B0
:10303600D37873E654FDF6AF2C7E00C37871E69F15
:10304600F618E69EF618EF26F618EE36F67871E6CE
:1030560018466006E52C6440600678727601D20652
:10306600E4F52D759694E59620E7FB5397FEE596D5
:1030760020E7FB7873E630E01B30060354FEF6E5E6
:103086002CFB7A007870E6F53308E6F534AD2D7F33
:103096000212207522604001370000000000000087
:1030A600000000000000000000000000000000001A
:1030B600000000000000000000000000000000000A
:1030C60000000000000000000000000000000000FA
:1030D60000000000000000000060400178000000D1
:1030E60000000000000000000000000000000000DA
:1030F60000000000000000000000000000000000CA
:1031060000000000000000000000000000000000B9
:103116000000000000000000000000000041001751
:103126000041000C0041000000410018FE010F00A4
:1031360041000180410136804101770041001900BC
:1031460042001A07D0C100C103C104C101C1020176
:103156000800010900010A00020D0000020B000030
:1031660000752DFF7858E6FC08E6FDEC6003023298
:103176002A7856E6541F600302322A785DE618461E
:10318600600302322A18E61846600302322A78548F
:10319600E664047048ED4C60197877860308E6FA11
:1031A60008E6F9900005122984785966700218E637
:1031B60070727859E67852F67877860308E6FA0848
:1031C600E6F9900005122984785966700218E670AF
:1031D60050D2061245487F0612451880447854E6B8
:1031E600640670407858E6FE08E6FF4E601778776A
:1031F600860308E6FA08E6F9900005122984B50761
:1032060023E4B5061F7859E67852F67859E618464B
:10321600700A7F041245181245948005C2061245AD
:1032260048E4F52DAF2D228F2E8B2F8A308931E57C
:103236002E601514601280007BFF7A4279827D8DA4
:103246007C021220187FFC22E52E600A7854E66480
:103256000660037FF722E52E75F007A4245FF9AF19
:1032660001EF2405F8E6FE64016009EE7FFEB40571
:10327600027FFB22E5E6A2E1920753E6FDAA30A90A
:1032860031A807A62F08A60208A601EF2403F8A670
:103296003208A633EF2405F87602A206E433540179
:1032A600FEEF2406F8E654FE4EF6E52E14600B04F7
:1032B600702C7865E64404F68024D3E5339440E523
:1032C60032940040047D408004AF33AD07786686B3
:1032D6000308E6FA08E6F9D2087F01123F753007BF
:1032E6000343E6027F0022E59620E7FB8F96EB601C
:1032F60024B401398A838982ED1D70067DFFEC6056
:10330600131CE59620E7FBE0F5970582E58270023F
:10331600058380E422E9F8ED1D70067DFFEC600C64
:103326001CE59620E7FBE6F5970880EB228A838961
:1033360082ED1D70067DFFEC60141CE59620E7FB10
:10334600E493F5970582E5827002058380E322EB1C
:10335600602E8A838982ED7004EC60231CE596203A
:10336600E7FB8F964396C0E59620E7FBE597F0DDF1
:1033760004EC600B1C0582E58270EC058380E82274
:10338600E9F8ED7004EC601C1CE59620E7FB8F96CF
:103396004396C0E59620E7FBE597F2DD04EC600472
:1033A6001C0880EF22C0E0C0F0C083C082C0D07588
:1033B600D000C000C001C002C003C004C005C006E2
:1033C600C0071248638F2812486E8F291248798FDA
:1033D6002A1248848F2BE52830E32E1248F712482C
:1033E600FD7865E6FF30E10618E66403600AEF3013
:1033F600E2097864E6B402034329017873E630E112
:103406000818E6B40303432A02E52830E203124310
:10341600E0E52830E1031248EAE52830E0031247E8
:10342600F1E52930E1031235B0E52A30E103122F28
:10343600CDE52930E003123658AF2B124858D00795
:10344600D006D005D004D003D002D001D000D0D011
:10345600D082D083D0F0D0E032752DFF785DE6645F
:1034660002184660030235057859E61846600302DD
:1034760035057856E6FF20E7030235057854E6FE63
:10348600C39404407AE4F516F517EF541F1460123E
:1034960014601D24027059785BE618467052F52DAB
:1034A600804EC3785BE6940118E694005042803D56
:1034B600785AE6FC08E6FDAA04547F4A7006EEB484
:1034C600040280297854E6B40626ED247F6012248F
:1034D60080701D7872E6B4060675160175170080B1
:1034E6000C786BE6B40606751601751700E4F52D23
:1034F600E52D700BFB7A0079167D02FC124670AF43
:103506002D22752DFF785DE6184660030235AD78ED
:1035160056E6541F24FE60030235AD7859E6184678
:1035260060030235AD785AE6FE08E6547FFF4E701A
:103536000D7854E6C394044005E4F52D8069C3EF85
:103546009403EE940050607854E664067059F52DA5
:10355600785BE6547FFF124858785BE630E70B75D8
:103566009611759740E59620E7FB785BE620E7180D
:10357600759694E59620E7FB5397DFE59620E7FBE3
:10358600439780E59620E7FB785BE6247F600F246F
:103596008070147872E66403600D76018009786B9A
:1035A600E6640260027601AF2D227F0112485812AE
:1035B60048265010759611E4F597E59620E7030224
:1035C600365780F6786BE6640260030236577869F0
:1035D600E6FE08E6FFD39440EE940040047F408068
:1035E600008F2C7E00C3786AE69FF618E69EF618D2
:1035F600EF26F618EE36F6786CE61392067869E64C
:10360600FE08E6FFD39400EE94004024D3EF9440E6
:10361600EE940040047D408004786AE6FD78668674
:103626000308E6FA08E6F9D2087F01123F75800919
:10363600786CE654FEF6187601300615E52CFB7A12
:10364600007869E6F53308E6F534E4FD7F011220DB
:103656007522E4FF12485812480C40051247FF50E5
:103666001D759611E4F597E59620E7FB759611759D
:103676009780E59620E7FB78647601E408F6124821
:1036860040505F7865E6FF30E30280537864E66475
:1036960001703E785EF61240487F56122A88BFFDBA
:1036A600147856E6FFC41354037005123B8D80321E
:1036B60012474E802D7856E620E7277864E66403A5
:1036C6006020785DE6184660197865E64408F6805D
:1036D600117864E6B403051238C380067865E644BB
:1036E60002F67864E6B402081248194003122DC4A3
:1036F6002275450175467C7547007548AA90017A82
:10370600E0F549A3E0F54AE549607FD3943F507A56
:10371600E54A6076D394085071E4FFEFC3954A50AA
:10372600250546E546AC457002054514F5828C83B1
:10373600E0FE0548E548AC477002054714F5828C63
:1037460083EEF00F80D5E4FFEFC39549501405488A
:10375600E548AC477002054714F5828C83E4F00F08
:1037660080E67E007FAA7C007D1EE54A2549F5504D
:103776007B03123C9C3083FD900017E54AF09000D5
:103786000CE549F09000007401F0228B238A24890D
:103796002553E6FD12201AE4FF74522FF8E4F60FC3
:1037A600BF2BF6AB23AA24A925122A0B7874A603ED
:1037B60008A60208A601AB23AA24A9259000031295
:1037C6002A2B7877A60308A60208A601AB23AA240B
:1037D600A925900006122A2B787AA60308A60208C5
:1037E600A601AB23AA24A92590000912298478539F
:1037F600F653A98F43D720759601759708E596204D
:10380600E7FB75960B75970FE59620E7FB12489A2E
:103816007854760343E602759601759701E596207E
:10382600E7FB7F0022C0E0C0F0C083C082C0D07535
:10383600D000C000C001C002C003C004C005C0065D
:10384600C007E5F854F0FFF4440F52F8EF30E752A2
:10385600E508602C300113850C82850B83E5A3F007
:10386600050CE50C7007050B800385A327D5080D0D
:10387600300305300002D2FA122014800385080AAC
:10388600E509601E30F91B300213850E82850D8313
:10389600E0F5A3050EE50E7007050D800375A30080
:1038A6001509D007D006D005D004D003D002D00128
:1038B600D000D0D0D082D083D0F0D0E0327865E688
:1038C60013920612488F8F2CC37863E69F18E694EE
:1038D60000500E7864760108E64402F6752DF280F3
:1038E6005A785F860308E6FA08E6F9AD2CE4FF127B
:1038F60042D3AF2C7E007861EF26F618EE36F6C37B
:103906007863E69FFF18E69EFEF608EFF6E4F52DCF
:10391600EF4E701CE52C644060167596117597483D
:10392600E59620E7FB7864760108E654FEF6800B00
:10393600759611759740E59620E7FB300615E52C40
:10394600FB7A007862E6F53308E6F534AD2DE4FF40
:10395600122075228F458B468A478948E5456016B1
:1039660024FE601280007BFF7A4279827D1A7C01F8
:103976001220187FFC22E545600A7854E66406604A
:10398600037FF722E54575F007A4245FF9AF01EF41
:103996002405F8E6FE64016009EE7FFEB405027FA9
:1039A600FB22E5E6A2E1920853E6FDAA47A948A84C
:1039B60007A64608A60208A601EF2403F8A64908AA
:1039C600A64AEF2405F87603A207E4335401FEEF76
:1039D6002406F8E654FE4EF654F7F630080343E69E
:1039E600027F0022752DFF785DE618466003023AD5
:1039F600777856E6541F24FE7077785AE6FE08E676
:103A0600547FFF4E700D7854E6C394044005E4F5E8
:103A16002D805EC3EF9403EE940050557859E61856
:103A260046704E7854E664067047F52D785BE6548A
:103A36007FFF124858785BE630E70B75961175974D
:103A460010E59620E7FB785BE620E710759694E58F
:103A56009620E7FB439720E59620E7FB785BE62474
:103A66007F600A2480700A787276068004786B7606
:103A760006AF2D2275450175467C7547007548AA27
:103A860075498090017BE0F54AE54A6070D3940859
:103A9600506BE4FFEFC3954A50250546E546AC4515
:103AA6007002054514F5828C83E0FE0548E548ACB6
:103AB600477002054714F5828C83EEF00F80D5E43B
:103AC600FFEFC3954950140548E548AC4770020519
:103AD6004714F5828C83E4F00F80E67E007FAA7C93
:103AE600007D1EE54A2549F5507B03123C9C308338
:103AF600FD900017E54AF090000CE549F0221244CB
:103B060085122ECBC297D296D2A0900000E0B403C5
:103B16000A7F03123FDFE4900000F0900000E0B45B
:103B2600110A7F11123FDFE4900000F0900000E0E0
:103B3600B4120A7F12123FDFE4900000F0E59020F5
:103B4600E240E5A054F064407038E59030E3337508
:103B5600C1D012477C7B047D017F501246537B0106
:103B66007A0179B87526057F5F1241CD53C1EF9072
:103B760001BAE0900018F030E00553A0FB80034343
:103B8600A004123E228083E4F52C7857E6B40C009C
:103B9600506A903B9FF8282873023BC3023BCA0237
:103BA6003C02023BD1023C02023BD8023BDF023C14
:103BB60002023BE6023BED023BF4023BFB12345FA2
:103BC6008F2C803B1235088F2C80341239EA8F2CCB
:103BD600802D12410F8F2C8026122CB48F2C801F23
:103BE60012201E8F2C80181231678F2C80111243E1
:103BF600A28F2C800A1244E78F2C8003752CFFE4D9
:103C0600FF124858E52CB4FF0312474EAF2C22AEE4
:103C160007E4FB124858300813A80674107E000803
:103C26008005C333CE33CED8F9FF8013AF06742098
:103C36007E00A807088005C333CE33CED8F9FFD35C
:103C4600ED9FEC9E5003430380300903430340304D
:103C56000720430320300803430304759611759724
:103C660040E59620E7FB7596128B97E59630E7259B
:103C760080F9759614759780E59620E7FB7596157D
:103C86008B97E59620E7FB20080B759612E4F597CF
:103C9600E59620E7FB228E4B8F4CAF50C207C2AE93
:103CA600E5A120E7FB20040312200385A351C2FFF0
:103CB600300305300002C2FAE550605430F91EEFB9
:103CC600601BEB30E113854B83854C82E0F5A30541
:103CD6004CE54C7007054B8003E4F5A31F30FF1934
:103CE600C2FFEB30E00E8D828C83E5A3F00DBD00A4
:103CF600010C800385A35115502003BC3000B92068
:103D06000709E5A130E3B1D20780ADE5A120E3A81C
:103D1600300305300002D2FAAF50227545017546D0
:103D26007C900017E0241EF582E43400AF82F5474C
:103D36008F48754900754AAA7D84E4FF0546E54625
:103D4600AA457002054514F5828A83E0FE054AE518
:103D56004AAA497002054914F5828A83EEF00FBF1C
:103D660004DAE4FF0546E546AA457002054514F562
:103D7600828A83E0FE054AE54AAA4970020549148B
:103D8600F5828A83EEF00FBF04DA7E007FAA8D509B
:103D96007B02E4FDFC123C9C3083FD22023B04E4E2
:103DA60093A3F8E493A34003F68001F208DFF480BE
:103DB60029E493A3F85407240CC8C333C4540F440E
:103DC60020C8834004F456800146F6DFE4800B01E8
:103DD6000204081020408090309BE47E019360BC72
:103DE600A3FF543F30E509541FFEE493A360010E80
:103DF600CF54C025E060A840B8E493A3FAE493A3A7
:103E0600F8E493A3C8C582C8CAC583CAF0A3C8C5C7
:103E160082C8CAC583CADFE9DEE780BE1247D390EF
:103E2600001AE07002A3E0705E90001AF0A37432EC
:103E3600F0E5805480FF900136E0FC6F600BE58072
:103E46005480F0E4900019F022900019E0C3940425
:103E56005004E004F022900136E0FD900001E0FFFE
:103E6600ED6F900177F0900001EDF0ECB4802690B4
:103E76000177E0B4801F90001A744EF0A37420F00E
:103E860043A4406380402290001BE024FFF0900092
:103E96001AE034FFF02212470C90017BE054FE1228
:103EA60045D61246DD90017BE0FF1245DDE4900029
:103EB60017F0C2071246AA90017DEFF0603FE4FDBD
:103EC600FC90017DE0FFFBC3ED9B7480F86C98507D
:103ED60031EF24FFFFE434FFFEEFB50508EEB5042D
:103EE60004D2078002C2071246AA747E2DF5827498
:103EF600013CF583EFF00DBD00010C80C4D2071222
:103F060046AA0247228F31E4F533E5316005C394B2
:103F16000340127BFF7A4279827D4D7C0012201885
:103F26007533FC8041E5E6A2E1920753E6FDE531F3
:103F360075F007A4245FF98932E5322405F8E664B2
:103F4600016023E53124FE600A04700C7F011244EF
:103F56001D80057F01124451E5322405F87601E5FE
:103F6600322406F8E4F630070343E602AF33228F25
:103F7600348D358B368A378938E59620E7FBE5346C
:103F86004420F596E5361460132403601A14602065
:103F9600147026AD38AF3512478B801DAC37AD385F
:103FA600AF351247388012AD38AF3512479F8009BA
:103FB600AC37AD38AF351246F530081CE534D3942E
:103FC600004015AF34124858759691E59620E7FBE8
:103FD600439701E59620E7FB22AD0753E6FD75966C
:103FE6000E759701E59620E7FB759691E59620E715
:103FF600FBAF97EF30E50B759611759740E5962068
:10400600E7FBEF30E20B759611E4F597E59620E7AE
:10401600FBBD0303124228BD120312431ABD11034E
:10402600122BA27B017A017937E50FFD7C007F21F7
:104036001232ED759611759701E59620E7FB43E67A
:104046000222752C56A92C7A007B007D08E4FF120B
:1040560042D3759611759740E59620E7FBE52C242B
:1040660002F8E6FC08E6FAECFFEAFEE52C2402F884
:10407600A60608A607E52C2404F8E6FC08E6FAECF2
:10408600FFEAFEE52C2404F8A60608A607E52C247C
:1040960006F8E6FC08E6FAECFFEAFEE52C2406F84C
:1040A600A60608A60722A3F0A3E539F0A3E53AF091
:1040B600E4A3F075450175467C7547007548AA90DE
:1040C600017BE0FD6042D3943E503DE4FFEFC39D8B
:1040D60050250546E546AA457002054514F5828A2F
:1040E60083E0FE0548E548AA477002054714F582B5
:1040F6008A83EEF00F80D67E007FAA8D507B02E485
:10410600FDFC123C9C3083FD22752DFF7858E6FE9F
:1041160008E6FFC39480EE9400504D785DE618469D
:1041260070467856E6541F703F785BE6184670383E
:104136007854E6B4030BEF4E60197F0412451880DD
:10414600127854E6B4040F7859E6184670057F03D2
:10415600124518E4F52DE52D700EF5967859E644CE
:1041660080F597E59620E7FBAF2D22900017E02417
:104176001EF582E43400AF82F52E8F2F753001755F
:1041860031399001377403F090000CE0900138F05B
:10419600E4FF90000CE0FEEFC39E5025052FE52FAF
:1041A600AC2E7002052E14F5828C83E0FD0531E5F8
:1041B60031AA307002053014F5828A83EDF00F8043
:1041C600D1EE2402F50F228B238A248925AD07120E
:1041D600470C7F701245DD1247771246DD7F71125C
:1041E60045DDE4FDFCC3ED95267480F86C98502FF0
:1041F600E52624FFFFE434FFFEEFB50508EEB5041F
:1042060004D2078002C2071246AAAB23AA24A92514
:104216008D828C83EF1229B10DBD00010C80C60280
:104226004722900017E0241EF582E43400AF82F5A1
:10423600228F237524017525399001377403F09078
:10424600000CE0900138F0E4FF90000CE0FEEFC3B4
:104256009E50250523E523AC227002052214F58223
:104266008C83E0FE0525E525AC247002052414F5B3
:10427600828C83EEF00F80D1750F4022433A5C5555
:10428600736572735C746573745C53696D706C6985
:104296006369747953747564696F5C76335F776F9D
:1042A600726B73706163655C4849445F5350495C47
:1042B6006C69625C65666D385F7573625C737263A8
:1042C6005C65666D385F757362642E63008F2E8D34
:1042D6002F8B308A318932E52FD394004035E5960D
:1042E60020E7FBE52E44E0F596E530146011240343
:1042F600601824FE701DAD32AB2EAF2F02468DAC7A
:1043060031AD32AB2EAF2F0245B5AD32AB2EAF2F4E
:1043160012463422752201752378752401752537D6
:10432600E4FF0523E523AC227002052214F5828CF6
:1043360083E0FE0525E525AC247002052414F582EC
:104346008C83EEF074782FF582E43401F583E4F083
:104356000FBF40CE750F402212470C90017BE01232
:1043660045D690017AE06031E4FDFC90017AE024C4
:10437600FEFFE434FFFEC3ED9FEE6480F8EC64803C
:10438600985016747D2DF58274013CF583E0FF127A
:1043960045DD0DBD00010C80D2024722785AE6FEAB
:1043A60008E67DFFC39401EE9400502B785DE66429
:1043B60001184670227859E61846701B7856E6B4FE
:1043C60081157854E6B4060F7BFF7A4979E57D01BD
:1043D6007C00124670E4FDAF052278647601786BA6
:1043E60076067872760675960F75978FE59620E7AE
:1043F600FB759601759701E59620E7FB75960B759B
:10440600970FE59620E7FBE5C9A2E650047F0380F7
:10441600027F0112451822124858759611759708A1
:10442600E59620E7FB759691E59620E7FBE5972054
:10443600E3F3759611759708E59620E7FB75969157
:10444600E59620E7FBE59720E3F322124858759698
:1044560014759710E59620E7FB759694E59620E788
:10446600FBE59720E4F3759614759710E59620E71B
:10447600FB759694E59620E7FBE59720E4F3228505
:10448600BF221248C31249021248D51248A5124744
:10449600631248DC12490612490A1248AF1247B3A2
:1044A6001248B91247C31248E31248CC8522BF22EC
:1044B600FFE5F0341EFEE4FDA2AF9205C2AF75FF24
:1044C600A075EF028F828E8375B7A575B7F1438FFE
:1044D6000175FFA075EF02EDF0538FFEA20592AFB6
:1044E600227FFF785BE6FE7859E6FDEEC394015025
:1044F600207854E6B4061A785DE618467013ED7017
:10450600107856E6541FFEBE0107C206124548E45F
:10451600FF228F2E7854E6F52FC394054009E52E29
:1045260094055003124594E52EB405047855A62F3C
:104536007854A62EE52F652E6007AD2EAF2F1245B7
:10454600F622300608786B760178727601D207D2A9
:1045560008C2097D407C007F01123C15C207D208C3
:10456600C2097D407C007F01023C15AD07ED448009
:10457600F596E59620E7FBAF97EF7F00FEED144436
:1045860080F596E59620E7FBAD97ED420722E5E636
:10459600A2E1920653E6FD753001AF30123F0B05DE
:1045A60030E530C3940340F230060343E602228D21
:1045B600828C831FEF600BE59620E7FBE597F0A35F
:1045C60080F1E59620E7FBEB4420F596E597F0228F
:1045D600FF1245DDA3E0FF8FC2C2C0E4FFFE20C08C
:1045E6000B0FBF00010EBE03F5BFE8F2A2C1B32256
:1045F6008F30BD0619D297C296D2A07B017A017977
:1046060078754900754A40D2077F0212395A2290BE
:10461600017A7401F0A3F0A37405F01236F7900046
:1046260017E0241EF582E43400F583E0FF22A80596
:104636001FEF600BE59620E7FBE597F20880F1E5B2
:104646009620E7FBEB4420F596E597F222AC07129D
:10465600470C7F701245DDAF041245DD12477C1210
:104666004777AF031245DD0247227864E6B40116A8
:10467600785FA60308A60208A60108A60408A605F0
:10468600087602E408F622A8051FEF600AE59620E0
:10469600E7FBA6970880F2E59620E7FBEB4420F5BA
:1046A60096A69722C2C0E4FFFE20C00B0FBF0001F2
:1046B6000EBE03F5BFE8F2A207B392C1AFC222FF56
:1046C600E5F0341EFEA2AF9207C2AF8F828E83E45E
:1046D60093FFA20792AF22D2C5C2C0E4FFFE20C05C
:1046E6000B0FBF00010EBE03F5BFE8F2C2C5228D57
:1046F600828C83AE071FEE600CE59620E7FBE49301
:10470600F597A380EE22D2C5E4FFFE20C00B0FBFB3
:1047160000010EBE03F5BFE8F2C2C522D2C4C2C074
:10472600E4FFFE30C40B0FBF00010EBE03F5BFE869
:10473600F2228D828C83AE071FEE600BE59620E792
:10474600FBE0F597A380EF22E4FF124858786476E1
:1047560005759611759760E59620E7FB22E5A0544E
:10476600F0FFBF40057590FF80037590E775A518AB
:1047760022AF051245DDE4FFFE0FBF00010EEF6418
:10478600324E70F522A805AE071FEE600BE59620A7
:10479600E7FBE6F5970880EF22A805AE071FEE6057
:1047A6000BE59620E7FBE2F5970880EF2275B90343
:1047B600758902758CE3E4F58A4388102275BC0876
:1047C60075BA1F75BB0B43E88075D10822E4FFFE5E
:1047D6000FBF00010EBE01F8BFF4F522E490017A86
:1047E600F0A304F0A37406F00240B97854E6C3942B
:1047F6000240057F0512451822759691E59620E739
:10480600FBE597A2E422759691E59620E7FBE597EE
:10481600A2E222759691E59620E7FBE597A2E122B2
:10482600759691E59620E7FBE597A2E522759694A5
:10483600E59620E7FBE597A2E622759691E5962098
:10484600E7FBE5971322759694E59620E7FBE59737
:10485600132275960E8F97E59620E7FB22759686AE
:10486600E59620E7FBAF9722759682E59620E7FB53
:10487600AF9722759684E59620E7FBAF972275964B
:104886008EE59620E7FBAF9722759696E59620E78C
:10489600FBAF97227864760143D78043D7402275D1
:1048A600A0FB75A604E4F5F32275A20F43A14043CD
:1048B600F80C22E490001DF090001CF022E4F5BFF5
:1048C60053D9BFF5D9227BFF7A4979DB0237917537
:1048D600A44075D4F02275E24075E1062275E60221
:1048E60075A8C0227855E6FF0245187F1712457154
:1048F600227F0D124571228E2C8F2D2275DE082205
:1049060043B2032275A903220600FF0901A101850E
:1049160003953F750826FF00150009019102953F92
:1049260026FF00150009018102C0120100020000E5
:104936000040350800FE4600010203010902290075
:104946000101048032090400000203000005092168
:10495600110100012222000705810340000207051C
:10496600010340000A04030904011A0353696C6930
:10497600636F6E204C616273000124034849442032
:10498600746F20535049204465766963650001229F
:1049960003303132333435363738394142434445B2
:1049A6004600011403436F6E6669672023310001D8
:1049B6002203437573746F6D20496E746572666168
:1049C600636500FF496BFF496FFF497FFF4994FF0D
:1049D60049A8FF49B5FF4930FF4942FF49C90600CA
:0149E60000D0
:017DF0000092
:027DF20000038C
:087DF80001200005004655AA18
:00000001FF
